:020000040000FA
:08000800ED29A601A701A801E2
:10001000A901AA01AB01AC01AD01AE01AF01B00174
:10002000B101B201B7010800850107309F00A401AA
:1000300083160030850040308600831285018601DA
:10004000063090001010080028305A2005100330A8
:100050004C2057208514851052208514851052207D
:10006000051002304C20522028304420103044200B
:100070000130442057200800A300230E05144C2013
:10008000230805144C200800A300230E05104C2063
:10009000230805104C2008000F39860085148510B0
:1000A000522008002930FF3E031D53280800053068
:1000B0005A28FA30A500FE3053200000A50B5B281B
:1000C00008006430B400B40B63280800803044207A
:1000D0000C3044200800C03044200C30442008007C
:1000E00046303C2072303C2065303C2071303C2052
:1000F00075303C2065303C206E303C2063303C2025
:1001000079303C2020303C206D303C2065303C2054
:1001100074303C2065303C2072303C2008002608BA
:10012000A6080319F03003192B14303E3C20270891
:10013000303E3C202808303E3C202E303C20290810
:10014000303E3C202A08303E3C2020303C206B30A2
:100150003C2048303C207A303C206B207020080046
:1001600020303C202608A6080319F03003192B1470
:10017000303E3C2027082B1CC228A7080319F0306A
:100180000319AB14303E3C2028082B1CCE28AB1C96
:10019000CE28A8080319F03003192B15303E3C2057
:1001A00029082B1CDC28AB1CDC282B1DDC28A9080B
:1001B0000319F0300319AB15303E3C202A08303EBD
:1001C0003C2020303C2020303C2048303C207A30FD
:1001D0003C206B20702008002608303E3C202E304A
:1001E0003C202708303E3C202808303E3C2029088F
:1001F000303E3C202A08303E3C2020303C204D3010
:100200003C2048303C207A303C206B207020080095
:100210002608A6080319F03003192B14303E3C20A1
:100220002708303E3C202E303C202808303E3C2021
:100230002908303E3C202A08303E3C2020303C201B
:100240004D303C2048303C207A303C206B207020E0
:10025000080046303C2069303C206E303C203A306B
:100260003C2020303C2008002C082C0E0F39F03E9A
:10027000B000B007E23EB200323EAF002C080F39AA
:10028000B207B207AF07E93EAE00AE07AE072D0ECC
:100290000F39AE07AF07AE0DAF0DAF09AF0D2D088B
:1002A0000F39AF07B00D0730B1000A30AF07AE030A
:1002B000031C5629AE07B203031C5A29B207B00328
:1002C000031C5E29B007B103031C622900343908FE
:1002D000AC003808AD0034213108A6003008A70072
:1002E0003208A8002E08A9002F08AA000800B801AB
:1002F000B9010A30A000B030B3008F018E010C109C
:100300001014BD30B400B40B8329B30B8129AF3076
:10031000B300A00B81293230B500B50B8D29101028
:100320000F08B9000E08B800B7010800B801B901FC
:10033000AE30B3008F018E010C101014BE30B4002B
:10034000B40BA029B30B9E292930B500B50BA62903
:1003500010100F08B9000E08B8000130B7000800EF
:10036000B801B9015630B3008F018E010C10101482
:100370002430B400B40BBA29B30BB8297A30B500D5
:10038000B50BC029000010100F08B9000E08B80006
:100390000230B700080016309000B801B9010C1007
:1003A0008F018E011014FA30B500B50BD529FA3043
:1003B000B500B50BD929A430B500B50BDD29000077
:1003C00000000000000010100F08B9000E08B8006F
:1003D000063090000330B7000800052014202420C8
:1003E000AB0177210C1896210C18B0210C18CB21E9
:1003F000672166202921003037060319B02001301B
:10040000370603198F20023037060319EC2003301A
:08041000370603190821F02949
:02400E00013F70
:00000001FF
